{
  "contractName": "Fundraiser",
  "abi": [
    {
      "inputs": [
        {
          "internalType": "string",
          "name": "_name",
          "type": "string"
        },
        {
          "internalType": "string",
          "name": "_url",
          "type": "string"
        },
        {
          "internalType": "string",
          "name": "_imageURL",
          "type": "string"
        },
        {
          "internalType": "string",
          "name": "_description",
          "type": "string"
        },
        {
          "internalType": "address payable",
          "name": "_beneficiary",
          "type": "address"
        },
        {
          "internalType": "address",
          "name": "_custodian",
          "type": "address"
        }
      ],
      "stateMutability": "nonpayable",
      "type": "constructor"
    },
    {
      "anonymous": false,
      "inputs": [
        {
          "indexed": true,
          "internalType": "address",
          "name": "donor",
          "type": "address"
        },
        {
          "indexed": false,
          "internalType": "uint256",
          "name": "value",
          "type": "uint256"
        }
      ],
      "name": "DonationReceived",
      "type": "event"
    },
    {
      "anonymous": false,
      "inputs": [
        {
          "indexed": true,
          "internalType": "address",
          "name": "previousOwner",
          "type": "address"
        },
        {
          "indexed": true,
          "internalType": "address",
          "name": "newOwner",
          "type": "address"
        }
      ],
      "name": "OwnershipTransferred",
      "type": "event"
    },
    {
      "anonymous": false,
      "inputs": [
        {
          "indexed": false,
          "internalType": "uint256",
          "name": "amount",
          "type": "uint256"
        }
      ],
      "name": "Withdraw",
      "type": "event"
    },
    {
      "stateMutability": "payable",
      "type": "fallback"
    },
    {
      "inputs": [],
      "name": "beneficiary",
      "outputs": [
        {
          "internalType": "address payable",
          "name": "",
          "type": "address"
        }
      ],
      "stateMutability": "view",
      "type": "function"
    },
    {
      "inputs": [],
      "name": "custodian",
      "outputs": [
        {
          "internalType": "address",
          "name": "",
          "type": "address"
        }
      ],
      "stateMutability": "view",
      "type": "function"
    },
    {
      "inputs": [],
      "name": "description",
      "outputs": [
        {
          "internalType": "string",
          "name": "",
          "type": "string"
        }
      ],
      "stateMutability": "view",
      "type": "function"
    },
    {
      "inputs": [],
      "name": "donationsCount",
      "outputs": [
        {
          "internalType": "uint256",
          "name": "",
          "type": "uint256"
        }
      ],
      "stateMutability": "view",
      "type": "function"
    },
    {
      "inputs": [],
      "name": "imageURL",
      "outputs": [
        {
          "internalType": "string",
          "name": "",
          "type": "string"
        }
      ],
      "stateMutability": "view",
      "type": "function"
    },
    {
      "inputs": [],
      "name": "name",
      "outputs": [
        {
          "internalType": "string",
          "name": "",
          "type": "string"
        }
      ],
      "stateMutability": "view",
      "type": "function"
    },
    {
      "inputs": [],
      "name": "owner",
      "outputs": [
        {
          "internalType": "address",
          "name": "",
          "type": "address"
        }
      ],
      "stateMutability": "view",
      "type": "function"
    },
    {
      "inputs": [],
      "name": "renounceOwnership",
      "outputs": [],
      "stateMutability": "nonpayable",
      "type": "function"
    },
    {
      "inputs": [],
      "name": "totalDonations",
      "outputs": [
        {
          "internalType": "uint256",
          "name": "",
          "type": "uint256"
        }
      ],
      "stateMutability": "view",
      "type": "function"
    },
    {
      "inputs": [
        {
          "internalType": "address",
          "name": "newOwner",
          "type": "address"
        }
      ],
      "name": "transferOwnership",
      "outputs": [],
      "stateMutability": "nonpayable",
      "type": "function"
    },
    {
      "inputs": [],
      "name": "url",
      "outputs": [
        {
          "internalType": "string",
          "name": "",
          "type": "string"
        }
      ],
      "stateMutability": "view",
      "type": "function"
    },
    {
      "inputs": [
        {
          "internalType": "address payable",
          "name": "_beneficiary",
          "type": "address"
        }
      ],
      "name": "setBeneficiary",
      "outputs": [],
      "stateMutability": "nonpayable",
      "type": "function"
    },
    {
      "inputs": [],
      "name": "myDonationsCount",
      "outputs": [
        {
          "internalType": "uint256",
          "name": "",
          "type": "uint256"
        }
      ],
      "stateMutability": "view",
      "type": "function"
    },
    {
      "inputs": [],
      "name": "donate",
      "outputs": [],
      "stateMutability": "payable",
      "type": "function"
    },
    {
      "inputs": [],
      "name": "myDonations",
      "outputs": [
        {
          "internalType": "uint256[]",
          "name": "values",
          "type": "uint256[]"
        },
        {
          "internalType": "uint256[]",
          "name": "dates",
          "type": "uint256[]"
        }
      ],
      "stateMutability": "view",
      "type": "function"
    },
    {
      "inputs": [],
      "name": "withdraw",
      "outputs": [],
      "stateMutability": "nonpayable",
      "type": "function"
    }
  ],
  "bytecode": "0x60806040523480156200001157600080fd5b5060405162001e1e38038062001e1e83398181016040528101906200003791906200054e565b620000576200004b620000fd60201b60201c565b6200010560201b60201c565b8560019081620000689190620008b1565b5084600290816200007a9190620008b1565b5083600390816200008c9190620008b1565b5082600490816200009e9190620008b1565b5081600560006101000a81548173ffffffffffffffffffffffffffffffffffffffff021916908373ffffffffffffffffffffffffffffffffffffffff160217905550620000f181620001c960201b60201c565b50505050505062000ab3565b600033905090565b60008060009054906101000a900473ffffffffffffffffffffffffffffffffffffffff169050816000806101000a81548173ffffffffffffffffffffffffffffffffffffffff021916908373ffffffffffffffffffffffffffffffffffffffff1602179055508173ffffffffffffffffffffffffffffffffffffffff168173ffffffffffffffffffffffffffffffffffffffff167f8be0079c531659141344cd1fd0a4f28419497f9722a3daafe3b4186f6b6457e060405160405180910390a35050565b620001d9620000fd60201b60201c565b73ffffffffffffffffffffffffffffffffffffffff16620001ff620002de60201b60201c565b73ffffffffffffffffffffffffffffffffffffffff161462000258576040517f08c379a00000000000000000000000000000000000000000000000000000000081526004016200024f90620009f9565b60405180910390fd5b600073ffffffffffffffffffffffffffffffffffffffff168173ffffffffffffffffffffffffffffffffffffffff1603620002ca576040517f08c379a0000000000000000000000000000000000000000000000000000000008152600401620002c19062000a91565b60405180910390fd5b620002db816200010560201b60201c565b50565b60008060009054906101000a900473ffffffffffffffffffffffffffffffffffffffff16905090565b6000604051905090565b600080fd5b600080fd5b600080fd5b600080fd5b6000601f19601f8301169050919050565b7f4e487b7100000000000000000000000000000000000000000000000000000000600052604160045260246000fd5b620003708262000325565b810181811067ffffffffffffffff8211171562000392576200039162000336565b5b80604052505050565b6000620003a762000307565b9050620003b5828262000365565b919050565b600067ffffffffffffffff821115620003d857620003d762000336565b5b620003e38262000325565b9050602081019050919050565b60005b8381101562000410578082015181840152602081019050620003f3565b8381111562000420576000848401525b50505050565b60006200043d6200043784620003ba565b6200039b565b9050828152602081018484840111156200045c576200045b62000320565b5b62000469848285620003f0565b509392505050565b600082601f8301126200048957620004886200031b565b5b81516200049b84826020860162000426565b91505092915050565b600073ffffffffffffffffffffffffffffffffffffffff82169050919050565b6000620004d182620004a4565b9050919050565b620004e381620004c4565b8114620004ef57600080fd5b50565b6000815190506200050381620004d8565b92915050565b60006200051682620004a4565b9050919050565b620005288162000509565b81146200053457600080fd5b50565b60008151905062000548816200051d565b92915050565b60008060008060008060c087890312156200056e576200056d62000311565b5b600087015167ffffffffffffffff8111156200058f576200058e62000316565b5b6200059d89828a0162000471565b965050602087015167ffffffffffffffff811115620005c157620005c062000316565b5b620005cf89828a0162000471565b955050604087015167ffffffffffffffff811115620005f357620005f262000316565b5b6200060189828a0162000471565b945050606087015167ffffffffffffffff81111562000625576200062462000316565b5b6200063389828a0162000471565b93505060806200064689828a01620004f2565b92505060a06200065989828a0162000537565b9150509295509295509295565b600081519050919050565b7f4e487b7100000000000000000000000000000000000000000000000000000000600052602260045260246000fd5b60006002820490506001821680620006b957607f821691505b602082108103620006cf57620006ce62000671565b5b50919050565b60008190508160005260206000209050919050565b60006020601f8301049050919050565b600082821b905092915050565b600060088302620007397fffffffffffffffffffffffffffffffffffffffffffffffffffffffffffffffff82620006fa565b620007458683620006fa565b95508019841693508086168417925050509392505050565b6000819050919050565b6000819050919050565b6000620007926200078c62000786846200075d565b62000767565b6200075d565b9050919050565b6000819050919050565b620007ae8362000771565b620007c6620007bd8262000799565b84845462000707565b825550505050565b600090565b620007dd620007ce565b620007ea818484620007a3565b505050565b5b81811015620008125762000806600082620007d3565b600181019050620007f0565b5050565b601f82111562000861576200082b81620006d5565b6200083684620006ea565b8101602085101562000846578190505b6200085e6200085585620006ea565b830182620007ef565b50505b505050565b600082821c905092915050565b6000620008866000198460080262000866565b1980831691505092915050565b6000620008a1838362000873565b9150826002028217905092915050565b620008bc8262000666565b67ffffffffffffffff811115620008d857620008d762000336565b5b620008e48254620006a0565b620008f182828562000816565b600060209050601f83116001811462000929576000841562000914578287015190505b62000920858262000893565b86555062000990565b601f1984166200093986620006d5565b60005b8281101562000963578489015182556001820191506020850194506020810190506200093c565b868310156200098357848901516200097f601f89168262000873565b8355505b6001600288020188555050505b505050505050565b600082825260208201905092915050565b7f4f776e61626c653a2063616c6c6572206973206e6f7420746865206f776e6572600082015250565b6000620009e160208362000998565b9150620009ee82620009a9565b602082019050919050565b6000602082019050818103600083015262000a1481620009d2565b9050919050565b7f4f776e61626c653a206e6577206f776e657220697320746865207a65726f206160008201527f6464726573730000000000000000000000000000000000000000000000000000602082015250565b600062000a7960268362000998565b915062000a868262000a1b565b604082019050919050565b6000602082019050818103600083015262000aac8162000a6a565b9050919050565b61135b8062000ac36000396000f3fe6080604052600436106100f75760003560e01c80635600f04f1161008a578063b90497e011610059578063b90497e014610307578063de2ed89314610332578063ed88c68e1461035d578063f2fde38b14610367576100f8565b80635600f04f1461026f578063715018a61461029a5780637284e416146102b15780638da5cb5b146102dc576100f8565b80631f522595116100c65780631f522595146101d7578063375b74c31461020257806338af3eed1461022d5780633ccfd60b14610258576100f8565b80630180b97c1461012c57806306fdde03146101575780631a57f7b4146101825780631c31f710146101ae576100f8565b5b61010d3460085461039090919063ffffffff16565b6008819055506009600081548092919061012690610da2565b91905055005b34801561013857600080fd5b506101416103a6565b60405161014e9190610df9565b60405180910390f35b34801561016357600080fd5b5061016c6103f0565b6040516101799190610ead565b60405180910390f35b34801561018e57600080fd5b5061019761047e565b6040516101a5929190610f8d565b60405180910390f35b3480156101ba57600080fd5b506101d560048036038101906101d09190611027565b6105f3565b005b3480156101e357600080fd5b506101ec6106b3565b6040516101f99190610df9565b60405180910390f35b34801561020e57600080fd5b506102176106b9565b6040516102249190611075565b60405180910390f35b34801561023957600080fd5b506102426106df565b60405161024f919061109f565b60405180910390f35b34801561026457600080fd5b5061026d610705565b005b34801561027b57600080fd5b50610284610829565b6040516102919190610ead565b60405180910390f35b3480156102a657600080fd5b506102af6108b7565b005b3480156102bd57600080fd5b506102c661093f565b6040516102d39190610ead565b60405180910390f35b3480156102e857600080fd5b506102f16109cd565b6040516102fe9190611075565b60405180910390f35b34801561031357600080fd5b5061031c6109f6565b6040516103299190610ead565b60405180910390f35b34801561033e57600080fd5b50610347610a84565b6040516103549190610df9565b60405180910390f35b610365610a8a565b005b34801561037357600080fd5b5061038e600480360381019061038991906110e6565b610ba6565b005b6000818361039e9190611113565b905092915050565b6000600760003373ffffffffffffffffffffffffffffffffffffffff1673ffffffffffffffffffffffffffffffffffffffff16815260200190815260200160002080549050905090565b600180546103fd90611198565b80601f016020809104026020016040519081016040528092919081815260200182805461042990611198565b80156104765780601f1061044b57610100808354040283529160200191610476565b820191906000526020600020905b81548152906001019060200180831161045957829003601f168201915b505050505081565b606080600061048b6103a6565b90508067ffffffffffffffff8111156104a7576104a66111c9565b5b6040519080825280602002602001820160405280156104d55781602001602082028036833780820191505090505b5092508067ffffffffffffffff8111156104f2576104f16111c9565b5b6040519080825280602002602001820160405280156105205781602001602082028036833780820191505090505b50915060005b818110156105ed576000600760003373ffffffffffffffffffffffffffffffffffffffff1673ffffffffffffffffffffffffffffffffffffffff1681526020019081526020016000208281548110610581576105806111f8565b5b9060005260206000209060020201905080600001548583815181106105a9576105a86111f8565b5b60200260200101818152505080600101548483815181106105cd576105cc6111f8565b5b6020026020010181815250505080806105e590610da2565b915050610526565b50509091565b6105fb610c9d565b73ffffffffffffffffffffffffffffffffffffffff166106196109cd565b73ffffffffffffffffffffffffffffffffffffffff161461066f576040517f08c379a000000000000000000000000000000000000000000000000000000000815260040161066690611273565b60405180910390fd5b80600560006101000a81548173ffffffffffffffffffffffffffffffffffffffff021916908373ffffffffffffffffffffffffffffffffffffffff16021790555050565b60095481565b600660009054906101000a900473ffffffffffffffffffffffffffffffffffffffff1681565b600560009054906101000a900473ffffffffffffffffffffffffffffffffffffffff1681565b61070d610c9d565b73ffffffffffffffffffffffffffffffffffffffff1661072b6109cd565b73ffffffffffffffffffffffffffffffffffffffff1614610781576040517f08c379a000000000000000000000000000000000000000000000000000000000815260040161077890611273565b60405180910390fd5b6000479050600560009054906101000a900473ffffffffffffffffffffffffffffffffffffffff1673ffffffffffffffffffffffffffffffffffffffff166108fc829081150290604051600060405180830381858888f193505050501580156107ee573d6000803e3d6000fd5b507f5b6b431d4476a211bb7d41c20d1aab9ae2321deee0d20be3d9fc9b1093fa6e3d8160405161081e9190610df9565b60405180910390a150565b6002805461083690611198565b80601f016020809104026020016040519081016040528092919081815260200182805461086290611198565b80156108af5780601f10610884576101008083540402835291602001916108af565b820191906000526020600020905b81548152906001019060200180831161089257829003601f168201915b505050505081565b6108bf610c9d565b73ffffffffffffffffffffffffffffffffffffffff166108dd6109cd565b73ffffffffffffffffffffffffffffffffffffffff1614610933576040517f08c379a000000000000000000000000000000000000000000000000000000000815260040161092a90611273565b60405180910390fd5b61093d6000610ca5565b565b6004805461094c90611198565b80601f016020809104026020016040519081016040528092919081815260200182805461097890611198565b80156109c55780601f1061099a576101008083540402835291602001916109c5565b820191906000526020600020905b8154815290600101906020018083116109a857829003601f168201915b505050505081565b60008060009054906101000a900473ffffffffffffffffffffffffffffffffffffffff16905090565b60038054610a0390611198565b80601f0160208091040260200160405190810160405280929190818152602001828054610a2f90611198565b8015610a7c5780601f10610a5157610100808354040283529160200191610a7c565b820191906000526020600020905b815481529060010190602001808311610a5f57829003601f168201915b505050505081565b60085481565b60006040518060400160405280348152602001428152509050600760003373ffffffffffffffffffffffffffffffffffffffff1673ffffffffffffffffffffffffffffffffffffffff16815260200190815260200160002081908060018154018082558091505060019003906000526020600020906002020160009091909190915060008201518160000155602082015181600101555050610b373460085461039090919063ffffffff16565b60088190555060096000815480929190610b5090610da2565b91905055503373ffffffffffffffffffffffffffffffffffffffff167f264f630d9efa0d07053a31163641d9fcc0adafc9d9e76f1c37c2ce3a558d2c5234604051610b9b9190610df9565b60405180910390a250565b610bae610c9d565b73ffffffffffffffffffffffffffffffffffffffff16610bcc6109cd565b73ffffffffffffffffffffffffffffffffffffffff1614610c22576040517f08c379a0000000000000000000000000000000000000000000000000000000008152600401610c1990611273565b60405180910390fd5b600073ffffffffffffffffffffffffffffffffffffffff168173ffffffffffffffffffffffffffffffffffffffff1603610c91576040517f08c379a0000000000000000000000000000000000000000000000000000000008152600401610c8890611305565b60405180910390fd5b610c9a81610ca5565b50565b600033905090565b60008060009054906101000a900473ffffffffffffffffffffffffffffffffffffffff169050816000806101000a81548173ffffffffffffffffffffffffffffffffffffffff021916908373ffffffffffffffffffffffffffffffffffffffff1602179055508173ffffffffffffffffffffffffffffffffffffffff168173ffffffffffffffffffffffffffffffffffffffff167f8be0079c531659141344cd1fd0a4f28419497f9722a3daafe3b4186f6b6457e060405160405180910390a35050565b7f4e487b7100000000000000000000000000000000000000000000000000000000600052601160045260246000fd5b6000819050919050565b6000610dad82610d98565b91507fffffffffffffffffffffffffffffffffffffffffffffffffffffffffffffffff8203610ddf57610dde610d69565b5b600182019050919050565b610df381610d98565b82525050565b6000602082019050610e0e6000830184610dea565b92915050565b600081519050919050565b600082825260208201905092915050565b60005b83811015610e4e578082015181840152602081019050610e33565b83811115610e5d576000848401525b50505050565b6000601f19601f8301169050919050565b6000610e7f82610e14565b610e898185610e1f565b9350610e99818560208601610e30565b610ea281610e63565b840191505092915050565b60006020820190508181036000830152610ec78184610e74565b905092915050565b600081519050919050565b600082825260208201905092915050565b6000819050602082019050919050565b610f0481610d98565b82525050565b6000610f168383610efb565b60208301905092915050565b6000602082019050919050565b6000610f3a82610ecf565b610f448185610eda565b9350610f4f83610eeb565b8060005b83811015610f80578151610f678882610f0a565b9750610f7283610f22565b925050600181019050610f53565b5085935050505092915050565b60006040820190508181036000830152610fa78185610f2f565b90508181036020830152610fbb8184610f2f565b90509392505050565b600080fd5b600073ffffffffffffffffffffffffffffffffffffffff82169050919050565b6000610ff482610fc9565b9050919050565b61100481610fe9565b811461100f57600080fd5b50565b60008135905061102181610ffb565b92915050565b60006020828403121561103d5761103c610fc4565b5b600061104b84828501611012565b91505092915050565b600061105f82610fc9565b9050919050565b61106f81611054565b82525050565b600060208201905061108a6000830184611066565b92915050565b61109981610fe9565b82525050565b60006020820190506110b46000830184611090565b92915050565b6110c381611054565b81146110ce57600080fd5b50565b6000813590506110e0816110ba565b92915050565b6000602082840312156110fc576110fb610fc4565b5b600061110a848285016110d1565b91505092915050565b600061111e82610d98565b915061112983610d98565b9250827fffffffffffffffffffffffffffffffffffffffffffffffffffffffffffffffff0382111561115e5761115d610d69565b5b828201905092915050565b7f4e487b7100000000000000000000000000000000000000000000000000000000600052602260045260246000fd5b600060028204905060018216806111b057607f821691505b6020821081036111c3576111c2611169565b5b50919050565b7f4e487b7100000000000000000000000000000000000000000000000000000000600052604160045260246000fd5b7f4e487b7100000000000000000000000000000000000000000000000000000000600052603260045260246000fd5b7f4f776e61626c653a2063616c6c6572206973206e6f7420746865206f776e6572600082015250565b600061125d602083610e1f565b915061126882611227565b602082019050919050565b6000602082019050818103600083015261128c81611250565b9050919050565b7f4f776e61626c653a206e6577206f776e657220697320746865207a65726f206160008201527f6464726573730000000000000000000000000000000000000000000000000000602082015250565b60006112ef602683610e1f565b91506112fa82611293565b604082019050919050565b6000602082019050818103600083015261131e816112e2565b905091905056fea26469706673582212207c2636c6f0e5ad4f1a2bbc715cb87e9e407ec7c82983458e22fa7e9d1866613764736f6c634300080f0033",
  "immutableReferences": {},
  "source": "pragma solidity >0.4.23;\n\nimport \"@openzeppelin/contracts/access/Ownable.sol\";\nimport \"openzeppelin-solidity/contracts/utils/math/SafeMath.sol\";\n\n\ncontract Fundraiser is Ownable {\n    using SafeMath for uint256;\n    string public name;\n    string public url;\n    string public imageURL;\n    string public description; \n    address payable public beneficiary;\n    address public custodian;\n    struct Donation {\n        uint256 value;\n        uint256 date; \n    }\n    mapping (address => Donation[]) private _donations;\n    uint256 public totalDonations;\n    uint256 public donationsCount;\n\n    event DonationReceived (address indexed donor, uint256 value);\n    event Withdraw(uint256 amount);\n\n    constructor (string memory _name, string memory _url, string memory _imageURL, string memory _description, address payable _beneficiary, address _custodian) public {\n        name = _name;\n        url = _url;\n        imageURL = _imageURL;\n        description = _description;\n        beneficiary = _beneficiary;\n        transferOwnership(_custodian);\n    }\n\n    function setBeneficiary (address payable _beneficiary) public onlyOwner {\n        beneficiary = _beneficiary;\n    }\n\n    function myDonationsCount () public view returns (uint256) {\n        return _donations[msg.sender].length;\n    }\n\n    \n    function donate () public payable {\n        Donation memory donation = Donation({\n            value: msg.value,\n            date: block.timestamp\n        });\n        _donations[msg.sender].push(donation);\n        totalDonations = totalDonations.add(msg.value);\n        donationsCount++;\n        emit DonationReceived (msg.sender, msg.value);\n      }\n\n   \n    function myDonations () public view returns (uint256[] memory values, uint256[] memory dates) {\n        uint256 count = myDonationsCount();\n        values = new uint256[](count);\n        dates = new uint256[](count);\n        for (uint256 i = 0; i < count; i++) {\n            Donation storage donation = _donations[msg.sender][i];\n            values[i] = donation.value;\n            dates[i] = donation.date;\n        }\n        return (values, dates);\n    }\n\n    function withdraw () public onlyOwner {\n        uint256 balance = address(this).balance;\n        beneficiary.transfer(balance);\n        emit Withdraw(balance);\n    }\n\n\n    fallback () external payable {\n        totalDonations = totalDonations.add(msg.value);\n        donationsCount++;\n    }\n   \n}",
  "sourcePath": "C:\\Users\\hitan\\Desktop\\Hitanshu\\iNeuron Internship\\creator-funding-portal\\contracts\\Fundraiser.sol",
  "compiler": {
    "name": "solc",
    "version": "0.8.15+commit.e14f2714.Emscripten.clang"
  },
  "schemaVersion": "3.4.6",
  "updatedAt": "2022-07-17T18:38:58.657Z",
  "devdoc": {
    "kind": "dev",
    "methods": {
      "owner()": {
        "details": "Returns the address of the current owner."
      },
      "renounceOwnership()": {
        "details": "Leaves the contract without owner. It will not be possible to call `onlyOwner` functions anymore. Can only be called by the current owner. NOTE: Renouncing ownership will leave the contract without an owner, thereby removing any functionality that is only available to the owner."
      },
      "transferOwnership(address)": {
        "details": "Transfers ownership of the contract to a new account (`newOwner`). Can only be called by the current owner."
      }
    },
    "version": 1
  },
  "userdoc": {
    "kind": "user",
    "methods": {},
    "version": 1
  }
}